:020000040800F2
:100000000050002051240008412100084721000829
:100010004D2100085321000859210008000000006C
:100020000000000000000000000000005F21000848
:100030006B210008000000007721000883210008E0
:10004000992400089924000899240008992400089C
:10005000992400089924000899240008992400088C
:100060009924000899240008992400089121000887
:10007000992400089924000899240008992400086C
:10008000992400089924000899240008992400085C
:10009000992400089924000899240008992400084C
:1000A000992400089924000899240008992400083C
:1000B000992400089924000899240008992400082C
:1000C000992400089924000899240008992400081C
:1000D00099240008A5210008992400089924000803
:1000E000B9210008992400089924000800000000A4
:1000F0000000000000000000000000000000000000
:0C01000000000000000000005FF808F1A3
:1001100010B5054C237833B9044B13B10448AFF341
:1001200000800123237010BD2C020020000000007D
:100130006888000808B5034B1BB103490348AFF3B7
:10014000008008BD00000000300200206888000820
:10015000034613F8012B002AFBD1181A0138704707
:1001600081F0004102E000BF83F0004330B54FEA68
:1001700041044FEA430594EA050F08BF90EA020FD5
:100180001FBF54EA000C55EA020C7FEA645C7FEA68
:10019000655C00F0E2804FEA5454D4EB5555B8BF8B
:1001A0006D420CDD2C4480EA020281EA030382EAFC
:1001B000000083EA010180EA020281EA0303362D8E
:1001C00088BF30BD11F0004F4FEA01314FF4801C61
:1001D0004CEA113102D0404261EB410113F0004F73
:1001E0004FEA03334CEA133302D0524263EB43032A
:1001F00094EA050F00F0A780A4F10104D5F1200EC8
:100200000DDB02FA0EFC22FA05F2801841F1000122
:1002100003FA0EF2801843FA05F359410EE0A5F1F6
:1002200020050EF1200E012A03FA0EFC28BF4CF027
:10023000020C43FA05F3C01851EBE37101F00045DD
:1002400007D54FF0000EDCF1000C7EEB00006EEBEA
:100250000101B1F5801F1BD3B1F5001F0CD3490874
:100260005FEA30004FEA3C0C04F101044FEA4452CB
:1002700012F5800F80F09A80BCF1004F08BF5FEA52
:10028000500C50F1000041EB045141EA050130BD32
:100290005FEA4C0C404141EB0101013C28BFB1F544
:1002A000801FE9D291F0000F04BF01460020B1FA8F
:1002B00081F308BF2033A3F10B03B3F120020CDA62
:1002C0000C3208DD02F1140CC2F10C0201FA0CF040
:1002D00021FA02F10CE002F11402D8BFC2F1200CA5
:1002E00001FA02F120FA0CFCDCBF41EA0C0190405B
:1002F000E41AA2BF01EB0451294330BD6FEA0404A4
:100300001F3C1CDA0C340EDC04F11404C4F120028E
:1003100020FA04F001FA02F340EA030021FA04F3A0
:1003200045EA030130BDC4F10C04C4F1200220FAF7
:1003300002F001FA04F340EA0300294630BD21FA35
:1003400004F0294630BD94F0000F83F4801306BFFB
:1003500081F480110134013D4EE77FEA645C18BFEF
:100360007FEA655C29D094EA050F08BF90EA020F86
:1003700005D054EA000C04BF1946104630BD91EA7E
:10038000030F1EBF0021002030BD5FEA545C05D181
:100390004000494128BF41F0004130BD14F58004C0
:1003A0003CBF01F5801130BD01F0004545F0FE4134
:1003B00041F470014FF0000030BD7FEA645C1ABF69
:1003C000194610467FEA655C1CBF0B46024650EAA0
:1003D000013406BF52EA033591EA030F41F40021CC
:1003E00030BD00BF90F0000F04BF0021704730B552
:1003F0004FF4806404F132044FF000054FF0000127
:1004000050E700BF90F0000F04BF0021704730B5E7
:100410004FF4806404F1320410F0004548BF4042BC
:100420004FF000013EE700BF42004FEAE2014FEA11
:1004300031014FEA02701FBF12F07F4393F07F4FEC
:1004400081F06051704732F07F4208BF704793F0EF
:100450007F4F04BF41F40021704730B54FF4607402
:1004600001F0004521F000411CE700BF50EA010205
:1004700008BF704730B54FF000050AE050EA0102AE
:1004800008BF704730B511F0004502D5404261EB1E
:1004900041014FF4806404F132045FEA915C3FF45F
:1004A000D8AE4FF003025FEADC0C18BF03325FEAFC
:1004B000DC0C18BF033202EBDC02C2F1200300FAAD
:1004C00003FC20FA02F001FA03FE40EA0E0021FAD2
:1004D00002F11444BDE600BF70B54FF0FF0C4CF4C0
:1004E000E06C1CEA11541DBF1CEA135594EA0C0F72
:1004F00095EA0C0F00F0DEF82C4481EA030621EAAD
:100500004C5123EA4C5350EA013518BF52EA0335E7
:1005100041F4801143F4801338D0A0FB02CE4FF099
:100520000005E1FB02E506F00042E0FB03E54FF0C9
:100530000006E1FB03569CF0000F18BF4EF0010EC1
:10054000A4F1FF04B6F5007F64F5407404D25FEABD
:100550004E0E6D4146EB060642EAC62141EA555170
:100560004FEAC52040EA5E504FEACE2EB4F1FD0CB2
:1005700088BFBCF5E06F1ED8BEF1004F08BF5FEA30
:10058000500E50F1000041EB045170BD06F00046E2
:1005900046EA010140EA020081EA0301B4EB5C048F
:1005A000C2BFD4EB0C0541EA045170BD41F4801187
:1005B0004FF0000E013C00F3AB8014F1360FDEBFAC
:1005C000002001F0004170BDC4F10004203C35DA88
:1005D0000C341BDC04F11404C4F1200500FA05F30B
:1005E00020FA04F001FA05F240EA020001F00042AC
:1005F00021F0004110EBD37021FA04F642EB060122
:100600005EEA430E08BF20EAD37070BDC4F10C044B
:10061000C4F1200500FA04F320FA05F001FA04F20F
:1006200040EA020001F0004110EBD37041F10001FB
:100630005EEA430E08BF20EAD37070BDC4F1200506
:1006400000FA05F24EEA020E20FA04F301FA05F26E
:1006500043EA020321FA04F001F0004121FA04F216
:1006600020EA020000EBD3705EEA430E08BF20EAE6
:10067000D37070BD94F0000F0FD101F00046400020
:1006800041EB010111F4801F08BF013CF7D041EAA2
:10069000060195F0000F18BF704703F000465200A6
:1006A00043EB030313F4801F08BF013DF7D043EA77
:1006B0000603704794EA0C0F0CEA135518BF95EA2D
:1006C0000C0F0CD050EA410618BF52EA4306D1D1B4
:1006D00081EA030101F000414FF0000070BD50EAD3
:1006E000410606BF1046194652EA430619D094EA5D
:1006F0000C0F02D150EA013613D195EA0C0F05D147
:1007000052EA03361CBF104619460AD181EA03019A
:1007100001F0004141F0FE4141F470014FF0000052
:1007200070BD41F0FE4141F4780170BD70B54FF0ED
:10073000FF0C4CF4E06C1CEA11541DBF1CEA13556D
:1007400094EA0C0F95EA0C0F00F0A7F8A4EB05044F
:1007500081EA030E52EA03354FEA013100F0888046
:100760004FEA03334FF0805545EA131343EA12630F
:100770004FEA022245EA111545EA10654FEA0026C4
:100780000EF000419D4208BF964244F1FD0404F57D
:10079000407402D25B084FEA3202B61A65EB0305D9
:1007A0005B084FEA32024FF480104FF4002CB6EB96
:1007B000020E75EB030E22BFB61A754640EA0C0016
:1007C0005B084FEA3202B6EB020E75EB030E22BF56
:1007D000B61A754640EA5C005B084FEA3202B6EB97
:1007E000020E75EB030E22BFB61A754640EA9C0056
:1007F0005B084FEA3202B6EB020E75EB030E22BF26
:10080000B61A754640EADC0055EA060E18D04FEAE3
:10081000051545EA16754FEA06164FEAC30343EA83
:1008200052734FEAC2025FEA1C1CC0D111F4801F50
:100830000BD141EA00014FF000004FF0004CB6E749
:1008400011F4801F04BF01430020B4F1FD0C88BFE8
:10085000BCF5E06F3FF6AFAEB5EB030C04BFB6EBF3
:10086000020C5FEA500C50F1000041EB045170BDE6
:100870000EF0004E4EEA113114EB5C04C2BFD4EB13
:100880000C0541EA045170BD41F480114FF0000E97
:10089000013C90E645EA060E8DE60CEA135594EA13
:1008A0000C0F08BF95EA0C0F3FF43BAF94EA0C0F16
:1008B0000AD150EA01347FF434AF95EA0C0F7FF48B
:1008C00025AF104619462CE795EA0C0F06D152EADF
:1008D00003353FF4FDAE1046194622E750EA4106C3
:1008E00018BF52EA43067FF4C5AE50EA41047FF4D4
:1008F0000DAF52EA43057FF4EBAE12E74FF0FF3C39
:1009000006E000BF4FF0010C02E000BF4FF0010C09
:100910004DF804CD4FEA410C7FEA6C5C4FEA430C82
:1009200018BF7FEA6C5C1BD001B050EA410C0CBFD1
:1009300052EA430C91EA030F02BF90EA020F002033
:10094000704710F1000F91EA030F58BF994208BF9A
:1009500090422CBFD8176FEAE37040F00100704757
:100960004FEA410C7FEA6C5C02D150EA013C07D1AE
:100970004FEA430C7FEA6C5CD6D152EA033CD3D0F9
:100980005DF8040B704700BF8446104662468C46F3
:100990001946634600E000BF01B5FFF7B7FF002826
:1009A00048BF10F1000F01BD4DF808EDFFF7F4FF4F
:1009B0000CBF012000205DF808FB00BF4DF808EDDA
:1009C000FFF7EAFF34BF012000205DF808FB00BFFD
:1009D0004DF808EDFFF7E0FF94BF012000205DF81F
:1009E00008FB00BF4DF808EDFFF7CEFF94BF0120D4
:1009F00000205DF808FB00BF4DF808EDFFF7C4FFCD
:100A000034BF012000205DF808FB00BF4FEA410C15
:100A10007FEA6C5C02D150EA013C0AD14FEA430CF8
:100A20007FEA6C5C02D152EA033C02D14FF0000035
:100A300070474FF0010070474FEA410212F5001273
:100A400015D211D56FF47873B3EB625212D94FEA15
:100A5000C12343F0004343EA505311F0004F23FAFF
:100A600002F018BF404270474FF00000704750EA54
:100A7000013005D111F0004008BF6FF00040704711
:100A80004FF00000704700BF4FEA4102B2F1E0436F
:100A900024BFB3F5001CDCF1FE5C0DD901F0004C65
:100AA0004FEAC0024CEA5070B2F1004F40EB8300B5
:100AB00008BF20F00100704711F0804F21D113F1E1
:100AC0003872BCBF01F00040704741F480114FEA1A
:100AD0005252C2F11802C2F1200C10FA0CF320FAA3
:100AE00002F018BF40F001004FEAC1234FEAD323C0
:100AF00003FA0CFC40EA0C0023FA02F34FEA43032A
:100B0000CCE77FEA625307D150EA01331EBF4FF0B2
:100B1000FE4040F44000704701F0004040F0FE40CD
:100B200040F40000704700BF80F0004002E000BFCA
:100B300081F0004142001FBF5FEA410392EA030FC8
:100B40007FEA226C7FEA236C6AD04FEA1262D2EB12
:100B50001363C1BFD218414048404140B8BF5B4217
:100B6000192B88BF704710F0004F40F4000020F0B0
:100B70007F4018BF404211F0004F41F4000121F0C6
:100B80007F4118BF494292EA030F3FD0A2F1010210
:100B900041FA03FC10EB0C00C3F1200301FA03F14E
:100BA00000F0004302D5494260EB4000B0F5000F71
:100BB00013D3B0F1807F06D340084FEA310102F130
:100BC0000102FE2A51D2B1F1004F40EBC25008BFE2
:100BD00020F0010040EA03007047490040EB0000AC
:100BE000013A28BFB0F5000FEDD2B0FA80FCACF1AD
:100BF000080CB2EB0C0200FA0CF0AABF00EBC250DA
:100C000052421843BCBFD0401843704792F0000FC7
:100C100081F4000106BF80F400000132013BB5E71A
:100C20004FEA41037FEA226C18BF7FEA236C21D090
:100C300092EA030F04D092F0000F08BF08467047F5
:100C400090EA010F1CBF0020704712F07F4F04D1C3
:100C5000400028BF40F00040704712F100723CBFD6
:100C600000F50000704700F0004343F0FE4040F400
:100C7000000070477FEA226216BF08467FEA2363BE
:100C80000146420206BF5FEA412390EA010F40F4A9
:100C9000800070474FF0000304E000BF10F00043F5
:100CA00048BF40425FEA000C08BF704743F09643DC
:100CB00001464FF000001CE050EA010208BF7047F7
:100CC0004FF000030AE000BF50EA010208BF70477E
:100CD00011F0004302D5404261EB41015FEA010C93
:100CE00002BF84460146002043F0B64308BFA3F18B
:100CF0008053A3F50003BCFA8CF2083AA3EBC2536D
:100D000010DB01FA02FC634400FA02FCC2F120028B
:100D1000BCF1004F20FA02F243EB020008BF20F0C2
:100D20000100704702F1200201FA02FCC2F1200228
:100D300050EA4C0021FA02F243EB020008BF20EA1D
:100D4000DC7070474FF0FF3C06E000BF4FF0010C35
:100D500002E000BF4FF0010C4DF804CD4FEA400215
:100D60004FEA41037FEA226C18BF7FEA236C11D05F
:100D700001B052EA530C18BF90EA010F58BFB2EB12
:100D8000030088BFC81738BF6FEAE17018BF40F092
:100D9000010070477FEA226C02D15FEA402C05D146
:100DA0007FEA236CE4D15FEA412CE1D05DF8040BCB
:100DB000704700BF844608466146FFE70FB5FFF75E
:100DC000C9FF002848BF10F1000F0FBD4DF808ED16
:100DD000FFF7F4FF0CBF012000205DF808FB00BF07
:100DE0004DF808EDFFF7EAFF34BF012000205DF861
:100DF00008FB00BF4DF808EDFFF7E0FF94BF0120AE
:100E000000205DF808FB00BF4DF808EDFFF7D2FFAA
:100E100094BF012000205DF808FB00BF4DF808EDED
:100E2000FFF7C8FF34BF012000205DF808FB00BFBA
:100E300080B584B000AF3B1D00221A605A609A60F2
:100E4000184B194A1A60174B00229A60154B012261
:100E50001A73144B00221A75124B4FF46022DA6198
:100E6000104B00225A600F4B01221A610D4801F00D
:100E70009BFB0346002B01D000F006FF00237B60A4
:100E80000123BB600723FB603B1D1946054801F0A9
:100E90005DFD0346002B01D000F0F6FE00BF1037C9
:100EA000BD4680BD480200200024014080B588B0C6
:100EB00000AF786007F1100300221A605A609A6050
:100EC000DA607B681B68284A934249D1274B9B69AB
:100ED000264A43F400739361244B9B6903F4007327
:100EE000FB60FB68214B9B69204A43F0040393613C
:100EF0001E4B9B6903F00403BB60BB6801233B618D
:100F000003237B6107F110031946194802F0C8FA60
:100F1000184B194A1A60174B00225A60154B0022D1
:100F20009A60144B8022DA60124B4FF480721A617F
:100F3000104B4FF480625A610E4B20229A610D4B88
:100F40000022DA610B4802F009F80346002B01D0B9
:100F500000F09AFE7B68074A1A62064A7B68536271
:100F600000BF2037BD4680BD002401400010024074
:100F700000080140780200200800024080B582B0DD
:100F800000AF0C4B5B690B4A43F001035361094B03
:100F90005B6903F001037B607B68002200210B206A
:100FA00001F0A5FF0B2001F0BEFF00BF0837BD46D2
:100FB00080BD00BF0010024080B588B000AF07F1CF
:100FC000100300221A605A609A60DA60394B9B69FC
:100FD000384A43F010039361364B9B6903F01003CA
:100FE000FB60FB68334B9B69324A43F020039361FB
:100FF000304B9B6903F02003BB60BB682D4B9B69A2
:101000002C4A43F0040393612A4B9B6903F00403C9
:101010007B607B68274B9B69264A43F008039361FA
:10102000244B9B6903F008033B603B6800224FF4AC
:101030000051214802F0B8FB00224FF47E711F4896
:1010400002F0B2FB4FF400533B6101237B610023AC
:10105000BB610223FB6107F110031946164802F039
:101060001FFA4FF400433B61154B7B610023BB61CA
:1010700007F110031946114802F012FA4FF47E737B
:101080003B6101237B610023BB610223FB6107F10C
:1010900010031946094802F003FA00220121282012
:1010A00001F025FF282001F03EFF00BF2037BD469C
:1010B00080BD00BF0010024000100140000C014044
:1010C0000000211080B500AF124B134A1A60114B7B
:1010D000124A5A600F4B00229A600E4B0022DA60CF
:1010E0000C4B4FF480421A610A4B00225A61094BA3
:1010F00000229A61074B0022DA61064B00221A6235
:10110000044802F09BFB0346002B01D000F0BCFD1D
:1011100000BF80BDBC02002000580040801A0600BD
:1011200080B588B000AF786007F1100300221A6024
:101130005A609A60DA607B681B68164A934224D131
:10114000154B9B69144A43F008039361124B9B694A
:1011500003F00803FB60FB684FF440633B6112231C
:101160007B610323FB6107F1100319460B4802F072
:1011700097F9094BDB69084A43F48003D361064BB6
:10118000DB6903F48003BB60BB6800BF2037BD464A
:1011900080BD00BF0058004000100240000C01401C
:1011A00080B500AF00F098F8332000F035F9322018
:1011B00000F032F9282000F02FF9012000F02CF97E
:1011C0000C2000F029F9062000F026F900BF80BDB0
:1011D00090B585B000AF78600023FB7309E0FB7B1E
:1011E0007A6813441B78184600F036F9FB7B01330C
:1011F000FB73FC7B7868FEF7ABFF03469C42EED3A3
:1012000000BF00BF1437BD4690BD80B500AF0120C0
:1012100000F002F900BF80BD80B584B000AF034686
:101220003960FB71FB7903F00703FB71FB79DB008D
:101230005BB243F040035BB2DBB2184600F0ECF85F
:101240000023FB7309E0FB7B3A6813441B781846C4
:1012500000F002F9FB7B0133FB73FB7B072BF2D918
:1012600000BF00BF1037BD4680BD80B582B000AF63
:1012700003460A46FB711346BB71BB79002B02D0B3
:10128000012B05D009E0FB7963F07F03FB7104E0DB
:10129000FB7963F03F03FB7100BFFB79184600F058
:1012A000BBF800BF0837BD4680BD80B582B000AF37
:1012B0000346FB710B46BB7113467B71BA79FB7910
:1012C00011461846FFF7D1FF7B79184600F0C4F8A5
:1012D00000BF0837BD4680BD80B588B000AF07F1BC
:1012E000100300221A605A609A60DA60484B9B69CA
:1012F000474A43F004039361454B9B6903F00403A1
:10130000FB60FB68424B9B69414A43F008039361D1
:101310003F4B9B6903F00803BB60BB683C4B9B6978
:101320003B4A43F010039361394B9B6903F0100370
:101330007B607B684FF400733B6101237B6100237A
:10134000BB610323FB6107F110031946314802F02A
:10135000A7F880233B6101237B610023BB6103234A
:10136000FB6107F1100319462A4802F099F84FF47F
:1013700080733B6101237B610023BB610323FB611D
:1013800007F110031946234802F08AF800224FF4AF
:101390008071204802F008FA40233B6101237B6101
:1013A0000023BB610323FB6107F1100319461948B1
:1013B00002F076F820233B6101237B610023BB61AF
:1013C0000323FB6107F110031946124802F068F885
:1013D00010233B6101237B610023BB610323FB617D
:1013E00007F1100319460B4802F05AF808233B6135
:1013F00001237B610023BB610323FB6107F1100321
:101400001946044802F04CF800BF2037BD4680BDA5
:1014100000100240000C014080B582B000AF0346CE
:10142000FB7100224FF400710A4802F0BDF9FB790C
:101430001B09DBB20421184600F02EF8FB7903F0FB
:101440000F03DBB20421184600F026F800BF08376E
:10145000BD4680BD000C014080B582B000AF0346A0
:10146000FB7101224FF400710A4802F09DF9FB79EB
:101470001B09DBB20421184600F00EF8FB7903F0DB
:101480000F03DBB20421184600F006F800BF08374E
:10149000BD4680BD000C014080B584B000AF03465E
:1014A0000A46FB711346BB710023FB7323E0FA79F4
:1014B000FB7B42FA03F303F00103002B0CD1FB7B0F
:1014C000174A52F82300FB7B164A32F813300022E9
:1014D000194602F069F90BE0FB7B114A52F8230030
:1014E000FB7B104A32F813300122194602F05CF9F6
:1014F000FB7B0133FB73FA7BBB799A42D7D3012282
:101500008021094802F050F9012001F029F8002259
:101510008021054802F048F900BF1037BD4680BD64
:101520000000002010000020000C014080B582B0B7
:1015300000AF7860391D64230122044803F040FBAA
:101540007B6818460837BD4680BD00BF50070020A5
:1015500080B500AF1C4B1B881846FEF753FF16A33F
:10156000D3E90023FEF7B8FF02460B4610461946A2
:1015700013A3D3E90023FFF7D9F802460B46104620
:1015800019464FF00002114BFEF7F0FD02460B46E4
:1015900010461946FFF778FA03460D4A13600C4BC4
:1015A0001B681846FEF740FF02460B4609490A48E9
:1015B00004F07AFE00BF80BD0000000000A074406F
:1015C0000000000000FEAF401003002000001440A7
:1015D00014030020808800081803002080B500AFA5
:1015E000284B1B78002B42D0FFF70FFE264B1B68C1
:1015F0001846FEF719FF02460B462449244804F01A
:1016000053FE00210020FFF730FE2248FFF7E0FDE7
:1016100000210620FFF729FE1D48FFF7D9FD1E49CE
:101620000020FFF7F9FD002200210C20FFF73DFE0E
:1016300000210D20FFF719FE1848FFF7C9FD184BD0
:101640001B881846FFF72AFB02460F4B1B681946FA
:101650001046FFF7C5FB0346002B00D110E0012127
:101660000020FFF702FE0F48FFF7B2FD08E0FFF78A
:10167000CCFD00210520FFF7F8FD0B48FFF7A8FD82
:1016800000BF80BD400300201403002080880008B4
:10169000180300208888000818000020908800089F
:1016A0002400002094880008A888000880B500AFB6
:1016B0002D4B1B78002B46D02C4B1B681846FEF791
:1016C000B3FE02460B462A492A4804F0EDFD0020ED
:1016D00000F07AFB0A21042000F0B6FC264A012320
:1016E00006CA264800F08AFC234A012306CA21487C
:1016F00000F084FC204A012306CA214800F07EFC49
:1017000000F07AFB1F4B1B881846FFF7C7FA02460A
:10171000164B1B6819461046FFF762FB0346002B69
:1017200000D11FE001210020FFF79FFD28210420A8
:1017300000F08AFC144A012306CA144800F05EFC3B
:1017400000F05AFB0EE0002000F03EFB19210020C3
:1017500000F07AFC0E4A012306CA0E4800F04EFC47
:1017600000F04AFB00BF80BD3400002014030020BD
:10177000808800081803002040000020B08800087E
:10178000B48800082400002038000020B888000831
:1017900048000020CC88000880B500AF124B1B68C1
:1017A0001846FEF741FE02460B46104804F0EEFCD8
:1017B0000F4B1B8819460F4804F0E8FC0C4B1B88A4
:1017C0001846FFF76BFA0246074B1B68194610468E
:1017D000FFF706FB0346002B00D102E0064804F0A9
:1017E0005BFD00BF80BD00BF14030020D888000847
:1017F00024000020F08800080C89000880B584B01F
:1018000000AF78607B681B68594A934203D15949FD
:10181000594804F069FD584B9B78502B23D1002385
:10182000FB600BE0FB680333534AD15C534AFB680F
:1018300013440A461A70FB680133FB60FB68042BF3
:10184000F0DD4E4803F0E4FF034619464C4804F02F
:101850009DFC4A4803F0DCFF03461A46494B1A60D8
:10186000494B01221A70444B9B784C2B25D1424B9B
:10187000DB78542B21D10023BB600BE0BB6806331F
:101880003D4AD15C414ABB6813440A461A70BB68A2
:101890000133BB60BB68012BF0DD3C4803F0B8FFAF
:1018A00003469AB23A4B1A80394B1B88194639487D
:1018B00004F06CFC344B01221A702F4B5B78322BF6
:1018C0004DD1642309223449344803F079F92A4B75
:1018D000DB78432B0FD1284B1B79442B0BD164238E
:1018E0000D222F492D4803F06BF92E4B01221A705F
:1018F000254B00221A70204B9B784F2B0BD1642371
:101900000E222949254803F05BF91F4B01221A706A
:10191000244B00221A70184B9B78422B0BD1642366
:101920000D2222491D4803F04BF9174B01221A7072
:101930001C4B01221A70104B9B784E2B0FD10E4B73
:10194000DB784F2B0BD1642309221949134803F08C
:1019500037F90D4B00221A70124B00221A70082220
:1019600004490E4803F0AFF900BF1037BD4680BDF3
:1019700000380140280300202C0000202003002014
:1019800028890008200000203400002028000020C2
:10199000240000203C8900085C89000850070020D2
:1019A00068890008400300207889000888890008B9
:1019B0009889000880B582B000AF0346FB8000F034
:1019C000C5FD0346264A1360FB88B3F5004F43D19B
:1019D000234B1A68234B1B68D31A282B3CD9224B64
:1019E0001B680133204A13601F4B1B68012B09D170
:1019F0001E4B4FF47A721A60642312221C491D4850
:101A000003F0DEF8184B1B68022B09D1174B40F688
:101A1000B8321A60642312221749164803F0D0F82E
:101A2000114B1B68032B0CD1104B41F288321A600A
:101A30006423122211490F4803F0C2F80A4B002216
:101A40001A60094B1B68032B02D9074B00221A604E
:101A5000034B1B68034A136000BF0837BD4680BDB7
:101A60003403002030030020380300202000002031
:101A7000A489000850070020B8890008CC89000814
:101A800080B500AF00F00AFD00F0A4F8FFF794FA6B
:101A9000FFF774FAFFF7CCF900F05CFCFFF712FBDC
:101AA00001224049404800F057FE08223F49404883
:101AB00003F009F9FFF774FB00F01EF9002105207F
:101AC000FFF7D3FB3B48FFF783FB6423062239492A
:101AD000374803F075F8002000F076F91921192035
:101AE00000F0B2FA344A012306CA324800F086FAFE
:101AF00000F082F940F2D66000F032FDFFF785FB7E
:101B0000FFF726FD00F022FD03462C4A13602B4B05
:101B10001B6819462A4804F039FBFFF73DFEFFF722
:101B20005DFDFFF7C3FD4FF40051264801F054FE60
:101B3000254B1B78012B09D1244B1B78012B05D198
:101B4000234B1B68CE3B184600F00AFD1E4B1B784A
:101B5000002B09D11D4B1B78012B05D11C4B1B6899
:101B6000E83B184600F0FCFC174B1B78012B09D111
:101B7000164B1B78002B05D1154B1B68843B184670
:101B800000F0EEFC104B1B78002BB9D10F4B1B78EB
:101B9000002BB5D10E4B1B68A03B184600F0E0FCB3
:101BA000AEE700BF100300204802002028030020F9
:101BB00050070020E0890008480000203C03002076
:101BC000E889000800100140340000204003002094
:101BD0002000002080B594B000AF07F12803282230
:101BE0000021184603F06AFE07F1140300221A6070
:101BF0005A609A60DA601A613B1D00221A605A60CE
:101C00009A60DA600123BB624FF48033FB620023E9
:101C10003B630123BB6302237B644FF48033BB64CB
:101C20000023FB6407F12803184602F0B3FA0346C9
:101C3000002B01D000F028F80F237B610223BB6149
:101C40008023FB614FF480633B6200237B6207F1DA
:101C500014030021184602F01FFD0346002B01D09B
:101C600000F012F802237B604FF40043FB603B1D41
:101C7000184602F09FFE0346002B01D000F004F846
:101C800000BF5037BD4680BD80B400AF72B600BF04
:101C9000FEE7000080B586B004AF0346FB714FF04D
:101CA000FF33029301230193FB1D009301230022C4
:101CB0007821034801F006FF00BF0837BD4680BD0C
:101CC000BC02002080B586B004AF786039603B6804
:101CD0009BB24FF0FF32029201937B680093012385
:101CE00040227821034801F0EDFE00BF0837BD46D1
:101CF00080BD00BFBC02002080B500AF642000F0B2
:101D00002FFC002000F0CCF92020FFF7C3FF0020BB
:101D1000FFF7C0FFB020FFF7BDFFC820FFF7BAFFF5
:101D20000020FFF7B7FF1020FFF7B4FF4020FFF7B8
:101D3000B1FFFF2000F0A0F9A120FFF7ABFFA62024
:101D4000FFF7A8FFA820FFF7A5FF3F20FFF7A2FF9E
:101D5000A420FFF79FFFD320FFF79CFF0020FFF791
:101D600099FFD520FFF796FFF020FFF793FFD920CA
:101D7000FFF790FF2220FFF78DFFDA20FFF78AFFA1
:101D80001220FFF787FFDB20FFF784FF2020FFF7FB
:101D900081FF8D20FFF77EFF1420FFF77BFF0120DE
:101DA00000F07EF9002000F00FF800F025F8054B58
:101DB00000221A80034B00225A80024B01221A7122
:101DC00000BF80BD4407002080B582B000AF03464D
:101DD000FB71FB79002B01D1002300E0FF234FF4BE
:101DE00080621946034803F069FD00BF0837BD460D
:101DF00080BD00BF4403002080B582B000AF002347
:101E0000FB7116E0FB79503BDBB21846FFF742FF4F
:101E10000020FFF73FFF1020FFF73CFFFB79DB01BD
:101E2000084A134480211846FFF74CFFFB79013321
:101E3000FB71FB79072BE5D900BF00BF0837BD4612
:101E400080BD00BF4403002080B483B000AF0346D0
:101E5000FB710B46BB7113467B7197F90730002B62
:101E60003DDBBB793F2B3AD87B79012B1AD1FA792C
:101E7000BB79DB08D8B20346DB0113441A4AD35CB2
:101E80005AB2BB7903F00703012101FA03F35BB2F5
:101E9000134359B2FA790346DB011344C9B2124A1B
:101EA000D1541DE0FA79BB79DB08D8B20346DB01D7
:101EB00013440D4AD35C5AB2BB7903F007030121E6
:101EC00001FA03F35BB2DB435BB2134059B2FA7918
:101ED0000346DB011344C9B2034AD15400E000BFFA
:101EE0000C37BD4680BC70474403002090B589B0D4
:101EF00000AF0446381D80E806001A462346FB73EF
:101F00001346BB73FB7B1F2B02D9FB7B7E2B01D9B6
:101F100000236DE0384B1B881A463B791344802B15
:101F200006DC354B5B881A467B791344402B01DD78
:101F300000235DE00023FB614CE0BA68FB7B203BA3
:101F4000797901FB03F31946FB690B445B001344E9
:101F50001B887B610023BB6134E07A69BB6902FAAC
:101F600003F303F40043002B12D0234B1B88DAB297
:101F7000BB69DBB21344D8B21F4B5B88DAB2FB6992
:101F8000DBB21344DBB2BA7B1946FFF75DFF16E004
:101F9000194B1B88DAB2BB69DBB21344D8B2164BBB
:101FA0005B88DAB2FB69DBB21344D9B2BB7B002B8E
:101FB0000CBF01230023DBB21A46FFF745FFBB69C4
:101FC0000133BB613B791A46BB699342C5D3FB69B8
:101FD0000133FB617B791A46FB699342ADD3064B13
:101FE0001A883B799BB213449AB2034B1A80FB7B4D
:101FF00018462437BD4690BD4407002080B584B004
:1020000000AFF860381D80E80600FB7012E0FB6846
:102010001878FB783A1D06CAFFF768FF03461A4690
:10202000FB681B789A4202D0FB681B7808E0FB68CB
:102030000133FB60FB681B78002BE8D1FB681B7841
:1020400018461037BD4680BD80B483B000AF03464C
:102050000A46FB711346BB71FB799AB2054B1A8095
:10206000BB799AB2034B5A8000BF0C37BD4680BC87
:10207000704700BF4407002080B584B000AF03461E
:10208000FB718123FB73FB7B1846FFF703FEFB7993
:102090001846FFF7FFFD00BF1037BD4680BD0000AA
:1020A00080B584B000AF0346FB71FB79002B05D0EF
:1020B000AF23FB73084B01225A7104E0AE23FB737C
:1020C000054B00225A71FB7B1846FFF7E3FD00BF6A
:1020D0001037BD4680BD00BF4407002080B485B0E6
:1020E00000AF154B9B69144A43F001039361124BF7
:1020F0009B6903F00103BB60BB680F4BDB690E4AB1
:1021000043F08053D3610C4BDB6903F080537B6059
:102110007B680A4B5B68FB60FB6823F0E063FB6055
:10212000FB6843F00073FB60044AFB68536000BF28
:102130001437BD4680BC70470010024000000140CB
:1021400080B400AFFEE780B400AFFEE780B400AF1C
:10215000FEE780B400AFFEE780B400AFFEE780B4D6
:1021600000AF00BFBD4680BC704780B400AF00BF69
:10217000BD4680BC704780B400AF00BFBD4680BC88
:10218000704780B500AF00F0CFF900BF80BD000000
:1021900080B500AF024801F04FF800BF80BD00BF1E
:1021A0007802002080B500AF024802F0B1FD00BF08
:1021B00080BD00BF5007002080B500AF4FF4004045
:1021C00001F024FB00BF80BD80B400AF012318469E
:1021D000BD4680BC704780B582B000AF7860396082
:1021E00003F01AFB034616221A604FF0FF3318461D
:1021F0000837BD4680BD80B582B000AF78604FF033
:10220000FF317868FFF7E7FFFEE780B586B000AFE3
:10221000F860B9607A6000237B610AE0AFF3008068
:102220000146BB685A1CBA60CAB21A707B69013396
:102230007B617A697B689A42F0DB7B6818461837C5
:10224000BD4680BD80B586B000AFF860B9607A60E9
:1022500000237B6109E0BB685A1CBA601B781846F2
:10226000FFF764F97B6901337B617A697B689A4285
:10227000F1DB7B6818461837BD4680BD80B483B05B
:1022800000AF78604FF0FF3318460C37BD4680BC76
:10229000704780B483B000AF786039603B684FF41A
:1022A00000525A60002318460C37BD4680BC704768
:1022B00080B483B000AF7860012318460C37BD4668
:1022C00080BC704780B485B000AFF860B9607A60B8
:1022D000002318461437BD4680BC704780B586B0D1
:1022E00000AF7860144A154BD31A7B617B693B6160
:1022F000134B1B68002B02D1114B124A1A60104B72
:102300001A687B6813443A699A4207D203F084FA48
:1023100003460C221A604FF0FF3309E0084B1B689C
:10232000FB60074B1A687B681344054A1360FB681F
:1023300018461837BD4680BD00500020000400003C
:102340004C070020B007002080B400AF00BFBD469E
:1023500080BC704780B500AF114B124A1A60104B19
:102360004FF4E1325A600E4B00229A600C4B00226F
:10237000DA600B4B00221A61094B0C225A61084BA0
:1023800000229A61064B0022DA61054802F0C8FB80
:102390000346002B01D0FFF777FC00BF80BD00BFD4
:1023A000500700200038014080B588B000AF786049
:1023B00007F1100300221A605A609A60DA607B68A5
:1023C0001B68204A934239D11F4B9B691E4A43F434
:1023D000804393611C4B9B6903F48043FB60FB6863
:1023E000194B9B69184A43F004039361164B9B6990
:1023F00003F00403BB60BB684FF400733B6102232E
:102400007B610323FB6107F1100319460F4801F0BC
:1024100047F84FF480633B6100237B610023BB617D
:1024200007F110031946094801F03AF8002201218A
:10243000252000F05CFD252000F075FD00BF203751
:10244000BD4680BD00380140001002400008014038
:102450000C480D490D4A002302E0D458C4500433FF
:10246000C4188C42F9D30A4A0A4C002301E01360D5
:102470000432A242FBD3FFF767FF03F0D3F9FFF763
:10248000FFFA7047000000202C0200201CB6000854
:102490002C020020AC070020FEE7000080B500AF52
:1024A000084B1B68074A43F010031360032000F039
:1024B00013FD002000F008F8FFF710FE0023184677
:1024C00080BD00BF0020024080B582B000AF7860C0
:1024D000124B1A68124B1B7819464FF47A73B3FBF0
:1024E000F1F3B2FBF3F3184600F02BFD0346002B8B
:1024F00001D001230EE07B680F2B0AD800227968F7
:102500004FF0FF3000F0F3FC064A7B6813600023B5
:1025100000E0012318460837BD4680BD500000206A
:10252000580000205400002080B400AF054B1B78F9
:102530001A46054B1B681344034A136000BFBD468F
:1025400080BC7047580000209807002080B400AF7E
:10255000024B1B681846BD4680BC70479807002098
:1025600080B584B000AF7860FFF7F0FFB8607B689B
:10257000FB60FB68B3F1FF3F05D00A4B1B781A469E
:10258000FB681344FB6000BFFFF7E0FF0246BB6837
:10259000D31AFA689A42F7D800BF00BF1037BD4679
:1025A00080BD00BF5800002080B586B000AF7860C5
:1025B0000023FB7500233B610023BB600023FB600D
:1025C0007B68002B01D10123BEE07B689B68002B58
:1025D0007B689B6A002B09D17B680022DA627B68EA
:1025E000002283F824207868FEF760FC786800F009
:1025F000FFFA0346FB757B689B6A03F01003002B10
:1026000040F09980FB7D002B40F095807B689B6AB1
:1026100023F4885323F0020343F002027B689A629A
:102620007B685A687B68DB691A437B681B7B5B00AD
:102630001343BA681343BB607B689B68B3F5807F24
:1026400003D07B689B68012B02D14FF4807300E0BC
:1026500000233A6913433B617B681B7D012B19D131
:102660007B681B7B002B09D17B689B69013B5A036C
:102670003B69134343F400633B610BE07B689B6A57
:1026800043F020027B689A627B68DB6A43F00102B8
:102690007B68DA627B681B685B6823F469417B684E
:1026A0001B683A690A435A607B681B689A68284B22
:1026B00013407A681268B9680B4393607B689B6823
:1026C000B3F5807F03D07B689B68012B04D17B68C6
:1026D0001B69013B1B05FB607B681B68DB6A23F4FD
:1026E00070017B681B68FA680A43DA627B681B68C2
:1026F0009A68184B1340BA689A420BD17B68002243
:10270000DA627B689B6A23F0030343F001027B6873
:102710009A6218E07B689B6A23F0120343F0100270
:102720007B689A627B68DB6A43F001027B68DA624D
:102730000123FB7507E07B689B6A43F010027B680E
:102740009A620123FB75FB7D18461837BD4680BD94
:10275000FDF7E1FFFE0E1FFF80B586B000AFF86009
:10276000B9607A600023FB75FB681B68644A93427A
:1027700004D0FB681B68634A934206D1604B5B68D8
:1027800003F47023002B40F0B380FB6893F82430EF
:10279000012B01D10223AEE0FB68012283F8242043
:1027A000F86800F0CBF90346FB75FB7D002B40F089
:1027B0009A80FB689B6A23F4706323F0010343F45F
:1027C0008072FB689A62FB681B684E4A934205D18F
:1027D0004B4B5B6803F47023002B15D1FB689B6A9D
:1027E00023F48012FB689A62FB681B685B6803F441
:1027F0008063002B26D0FB689B6A23F4405343F48C
:102800008052FB689A621DE0FB689B6A43F4801269
:10281000FB689A62FB681B68394A934204D0FB68E4
:102820001B68384A93420DD1354B5B6803F48063D3
:10283000002B07D0FB689B6A23F4405343F480527B
:10284000FB689A62FB689B6A03F48053002B06D0F6
:10285000FB68DB6A23F00602FB68DA6202E0FB68D1
:102860000022DA62FB68002283F82420FB681B6ADE
:10287000254A9A62FB681B6A244ADA62FB681B6A73
:10288000234A1A63FB681B686FF002021A60FB6838
:102890001B689A68FB681B6842F480729A60FB6848
:1028A000186AFB681B684C331946BA687B6800F0ED
:1028B000AFFBFB681B689B6803F46023B3F5602FD4
:1028C00008D1FB681B689A68FB681B6842F4A00289
:1028D0009A600FE0FB681B689A68FB681B6842F40B
:1028E00080129A6006E0FB68002283F8242001E051
:1028F0000123FB75FB7D18461837BD4680BD00BF20
:102900000024014000280140732C0008EF2C00082F
:102910000B2D000880B483B000AF786000BF0C3787
:10292000BD4680BC704780B483B000AF786000BF04
:102930000C37BD4680BC704780B483B000AF786070
:1029400000BF0C37BD4680BC7047000080B485B026
:1029500000AF786039600023FB730023BB607B68A5
:1029600093F82430012B01D10223DCE07B680122A3
:1029700083F824203B685B68062B1CD87B681B68A7
:10298000596B3B685A6813469B001344053B1F2252
:1029900002FA03F3DB4319403B6818683B685A6846
:1029A00013469B001344053B00FA03F27B681B6847
:1029B0000A435A633CE03B685B680C2B1CD87B687D
:1029C0001B68196B3B685A6813469B001344233BF2
:1029D0001F2202FA03F3DB4319403B6818683B6887
:1029E0005A6813469B001344233B00FA03F27B68AA
:1029F0001B680A431A631BE07B681B68D96A3B6843
:102A00005A6813469B001344413B1F2202FA03F30A
:102A1000DB4319403B6818683B685A6813469B00C3
:102A20001344413B00FA03F27B681B680A43DA62F5
:102A30003B681B68092B1CD97B681B68D9683B68FD
:102A40001A6813465B0013441E3B072202FA03F385
:102A5000DB4319403B6898683B681A6813465B0083
:102A600013441E3B00FA03F27B681B680A43DA60DA
:102A700019E07B681B6819693B681A6813465B009C
:102A80001344072202FA03F3DB4319403B689868BA
:102A90003B681A6813465B00134400FA03F27B6834
:102AA0001B680A431A613B681B68102B03D03B6804
:102AB0001B68112B32D17B681B681D4A934225D1BC
:102AC0007B681B689B6803F40003002B26D17B689E
:102AD0001B689A687B681B6842F400029A603B6836
:102AE0001B68102B1AD1134B1B68134AA2FB03233C
:102AF0009A0C13469B0013445B00BB6002E0BB686A
:102B0000013BBB60BB68002BF9D107E07B689B6A87
:102B100043F020027B689A620123FB737B680022EA
:102B200083F82420FB7B18461437BD4680BC7047D1
:102B3000002401405000002083DE1B4380B584B098
:102B400000AF78600023FB600023BB607B681B68DC
:102B50009B6803F00103012B40D07B681B689A68D7
:102B60007B681B6842F001029A601F4B1B681F4A7A
:102B7000A2FB03239B0CBB6002E0BB68013BBB6074
:102B8000BB68002BF9D1FFF7E1FCF8601FE0FFF70D
:102B9000DDFC0246FB68D31A022B18D97B681B6840
:102BA0009B6803F00103012B11D07B689B6A43F003
:102BB00010027B689A627B68DB6A43F001027B68E3
:102BC000DA627B68002283F82420012307E07B6817
:102BD0001B689B6803F00103012BD8D10023184622
:102BE0001037BD4680BD00BF5000002083DE1B4370
:102BF00080B584B000AF78600023FB607B681B6801
:102C00009B6803F00103012B2ED17B681B689A6837
:102C10007B681B6822F001029A60FFF797FCF8605E
:102C20001BE0FFF793FC0246FB68D31A022B14D972
:102C30007B681B689B6803F00103012B0DD17B6847
:102C40009B6A43F010027B689A627B68DB6A43F000
:102C500001027B68DA62012307E07B681B689B68DE
:102C600003F00103012BDCD0002318461037BD46CA
:102C700080BD80B584B000AF78607B685B6AFB6024
:102C8000FB689B6A03F05003002B27D1FB689B6A0B
:102C900043F40072FB689A62FB681B689B6803F44C
:102CA0006023B3F5602F15D1FB681B7B002B11D17E
:102CB000FB689B6A23F48072FB689A62FB689B6ADC
:102CC00003F48053002B05D1FB689B6A43F001029B
:102CD000FB689A62F868FFF71DFE04E0FB681B6A58
:102CE0001B6B7868984700BF1037BD4680BD80B524
:102CF00084B000AF78607B685B6AFB60F868FFF7C0
:102D000012FE00BF1037BD4680BD80B584B000AF55
:102D100078607B685B6AFB60FB689B6A43F04002FB
:102D2000FB689A62FB68DB6A43F00402FB68DA62C4
:102D3000F868FFF701FE00BF1037BD4680BD0000F8
:102D400080B485B000AF78607B6803F00703FB6058
:102D50000C4BDB68BB60BA684FF6FF031340BB60E7
:102D6000FB681A02BB68134343F0BF6343F40033AC
:102D7000BB60044ABB68D36000BF1437BD4680BC4B
:102D8000704700BF00ED00E080B400AF044BDB688B
:102D90001B0A03F007031846BD4680BC704700BFFE
:102DA00000ED00E080B483B000AF0346FB7197F9FB
:102DB0000730002B0BDBFB7903F01F02064997F964
:102DC00007305B09012000FA02F241F8232000BF1E
:102DD0000C37BD4680BC704700E100E080B483B092
:102DE00000AF03463960FB7197F90730002B0ADB0F
:102DF0003B68DAB20C4997F907301201D2B20B44A2
:102E000083F800230AE03B68DAB20849FB7903F053
:102E10000F03043B1201D2B20B441A7600BF0C37E9
:102E2000BD4680BC704700BF00E100E000ED00E05F
:102E300080B489B000AFF860B9607A60FB6803F0D5
:102E40000703FB61FB69C3F10703042B28BF0423BD
:102E5000BB61FB690433062B02D9FB69033B00E02D
:102E600000237B614FF0FF32BB6902FA03F3DA43C0
:102E7000BB681A407B699A404FF0FF317B6901FAC9
:102E800003F3D9437B680B40134318462437BD46F0
:102E900080BC704780B582B000AF78607B68013B32
:102EA000B3F1807F01D301230FE00A4A7B68013B25
:102EB00053600F214FF0FF30FFF790FF054B0022CA
:102EC0009A60044B07221A60002318460837BD4653
:102ED00080BD00BF10E000E080B582B000AF786038
:102EE0007868FFF72DFF00BF0837BD4680BD80B56D
:102EF00086B000AF0346B9607A60FB7300237B6144
:102F0000FFF742FF78617A68B9687869FFF790FF48
:102F1000024697F90F3011461846FFF75FFF00BFD2
:102F20001837BD4680BD80B582B000AF0346FB7147
:102F300097F907301846FFF735FF00BF0837BD4641
:102F400080BD80B582B000AF78607868FFF7A2FFDF
:102F5000034618460837BD4680BD000080B485B0E2
:102F600000AF78600023FB607B68002B01D1012358
:102F700043E07B681B681A46224B1344224AA2FB9B
:102F800003231B099A007B681A647B681F4ADA6373
:102F90007B68022283F821207B681B681B68FB602A
:102FA000FB6823F47F5323F03003FB607B685A688F
:102FB0007B689B681A437B68DB681A437B681B69E4
:102FC0001A437B685B691A437B689B691A437B6879
:102FD000DB691343FA681343FB607B681B68FA687C
:102FE0001A607B6800229A637B68012283F82120A3
:102FF0007B68002283F82020002318461437BD4642
:1030000080BC7047F8FFFDBFCDCCCCCC00000240A7
:1030100080B586B000AFF860B9607A603B6000238D
:10302000FB75FB6893F82030012B01D102234BE0A4
:10303000FB68012283F82020FB6893F82130DBB283
:10304000012B3AD1FB68022283F82120FB68002281
:103050009A63FB681B681A68FB681B6822F0010210
:103060001A603B687A68B968F86800F0EBF9FB68A9
:10307000DB6A002B08D0FB681B681A68FB681B68BA
:1030800042F00E021A600FE0FB681B681A68FB68CA
:103090001B6822F004021A60FB681B681A68FB6850
:1030A0001B6842F00A021A60FB681B681A68FB681A
:1030B0001B6842F001021A6005E0FB68002283F8F9
:1030C00020200223FB75FB7D18461837BD4680BDC6
:1030D00080B485B000AF78600023FB737B6893F801
:1030E0002130DBB2022B08D07B6804229A637B6814
:1030F000002283F82020012320E07B681B681A68E7
:103100007B681B6822F00E021A607B681B681A68D5
:103110007B681B6822F001021A607B681A6C7B686E
:10312000DB6B012101FA02F25A607B68012283F80D
:1031300021207B68002283F82020FB7B184614376F
:10314000BD4680BC7047000080B584B000AF786099
:103150000023FB737B6893F82130DBB2022B05D090
:103160007B6804229A630123FB7351E07B681B6830
:103170001A687B681B6822F00E021A607B681B6865
:103180001A687B681B6822F001021A607B681B6862
:10319000224A934229D07B681B68214A934222D05D
:1031A0007B681B681F4A93421AD07B681B681E4AC3
:1031B000934212D07B681B681C4A93420AD07B68FA
:1031C0001B681B4A934202D14FF480130EE04FF06C
:1031D00080730BE04FF4803308E04FF4805305E038
:1031E0004FF4807302E0102300E00123114A536082
:1031F0007B68012283F821207B68002283F820204D
:103200007B685B6B002B03D07B685B6B78689847AF
:10321000FB7B18461037BD4680BD00BF080002404A
:103220001C000240300002404400024058000240AE
:103230006C0002400000024080B584B000AF7860AE
:103240007B68DB6B1B68FB607B681B681B68BB6073
:103250007B681B6C04229A40FB681340002B4FD004
:10326000BB6803F00403002B4AD07B681B681B6813
:1032700003F02003002B07D17B681B681A687B686A
:103280001B6822F004021A607B681B68664A93423E
:1032900029D07B681B68654A934222D07B681B68F3
:1032A000634A93421AD07B681B68624A934212D0E9
:1032B0007B681B68604A93420AD07B681B685F4A40
:1032C000934202D14FF480030EE04FF080630BE095
:1032D0004FF4802308E04FF4804305E04FF480630F
:1032E00002E0402300E00423554A53607B68DB6A18
:1032F000002B00F094807B68DB6A786898478EE04A
:103300007B681B6C02229A40FB681340002B56D04E
:10331000BB6803F00203002B51D07B681B681B685D
:1033200003F02003002B0BD17B681B681A687B68B5
:103330001B6822F00A021A607B68012283F82120B0
:103340007B681B68384A934229D07B681B68374AE0
:10335000934222D07B681B68354A93421AD07B681F
:103360001B68344A934212D07B681B68324A9342EE
:103370000AD07B681B68314A934202D14FF4001394
:103380000EE04FF000730BE04FF4003308E04FF411
:10339000005305E04FF4007302E0202300E0022315
:1033A000274A53607B68002283F820207B689B6A51
:1033B000002B34D07B689B6A786898472FE07B6845
:1033C0001B6C08229A40FB681340002B28D0BB6876
:1033D00003F00803002B23D07B681B681A687B6806
:1033E0001B6822F00E021A607B681A6C7B68DB6B2C
:1033F000012101FA02F25A607B6801229A637B681C
:10340000012283F821207B68002283F820207B683A
:103410001B6B002B04D07B681B6B7868984700BF40
:1034200000BF1037BD4680BD080002401C000240AE
:103430003000024044000240580002406C0002404C
:103440000000024080B485B000AFF860B9607A60D7
:103450003B60FB681A6CFB68DB6B012101FA02F22E
:103460005A60FB681B683A685A60FB685B68102BFF
:1034700008D1FB681B687A689A60FB681B68BA68A9
:10348000DA6007E0FB681B68BA689A60FB681B6833
:103490007A68DA6000BF1437BD4680BC7047000010
:1034A00080B48BB000AF7860396000237B6200236A
:1034B0003B6269E101227B6A02FA03F3FB613B682C
:1034C0001B68FA691340BB61BA69FB699A4240F014
:1034D00058813B685B689A4A93425ED0984A93420F
:1034E00075D8984A934258D0964A93426FD8964AD4
:1034F000934252D0944A934269D8944A93424CD012
:10350000924A934263D8924A934246D0904A934259
:103510005DD8122B2AD8122B59D801A252F823F0C9
:103520009B3500087535000887350008C935000847
:10353000CF350008CF350008CF350008CF3500085B
:10354000CF350008CF350008CF350008CF3500084B
:10355000CF350008CF350008CF350008CF3500083B
:10356000CF3500087D35000891350008794A93422F
:1035700013D02CE03B68DB683B6229E03B68DB68EA
:1035800004333B6224E03B68DB6808333B621FE0A6
:103590003B68DB680C333B621AE03B689B68002B9E
:1035A00002D104233B6213E03B689B68012B05D1E9
:1035B00008233B627B68FA691A6109E008233B62D1
:1035C0007B68FA695A6103E000233B6200E000BFB8
:1035D000BB69FF2B01D87B6801E07B6804337B610A
:1035E000BB69FF2B02D87B6A9B0002E07B6A083B29
:1035F0009B003B617B691A680F213B6901FA03F369
:10360000DB431A40396A3B6901FA03F31A437B69C9
:103610001A603B685B6803F08053002B00F0B180B8
:103620004D4B9B694C4A43F0010393614A4B9B69A4
:1036300003F00103BB60BB68484A7B6A9B08023306
:1036400052F82330FB607B6A03F003039B000F22D8
:1036500002FA03F3DB43FA681340FB607B68404ADD
:10366000934213D07B683F4A93420DD07B683E4A19
:10367000934207D07B683D4A934201D1032306E081
:10368000042304E0022302E0012300E000237A6A1D
:1036900002F0030292009340FA681343FB602F4943
:1036A0007B6A9B080233FA6841F823203B685B6819
:1036B00003F48013002B06D02D4B9A682C49BB696C
:1036C00013438B6006E02A4B9A68BB69DB432849A9
:1036D00013408B603B685B6803F40013002B06D03B
:1036E000234BDA682249BB691343CB6006E0204BC9
:1036F000DA68BB69DB431E491340CB603B685B68FB
:1037000003F40033002B06D0194B5A681849BB69E3
:1037100013434B6006E0164B5A68BB69DB43144900
:1037200013404B603B685B6803F48033002B21D06F
:103730000F4B1A680E49BB6913430B6021E000BFB1
:103740000000321000003110000022100000211093
:103750000000121000001110001002400000014093
:1037600000080140000C014000100140001401401D
:10377000000401400B4B1A68BB69DB430949134045
:103780000B607B6A01337B623B681A687B6A22FAB2
:1037900003F3002B7FF48EAE00BF00BF2C37BD4675
:1037A00080BC70470004014080B483B000AF7860F3
:1037B0000B467B8013467B707B78002B03D07A8886
:1037C0007B681A6103E07B881A047B681A6100BF7A
:1037D0000C37BD4680BC704780B485B000AF7860C0
:1037E0000B467B807B68DB68FB607A88FB68134054
:1037F0001A04FB68D9437B880B401A437B681A6123
:1038000000BF1437BD4680BC7047000080B582B051
:1038100000AF0346FB80084B5A69FB881340002B1E
:1038200006D0054AFB885361FB881846FEF7C2F8AC
:1038300000BF0837BD4680BD0004014080B584B09C
:1038400000AF78607B68002B01D101232BE17B68FE
:1038500093F83D30DBB2002B06D17B68002283F861
:103860003C207868FDF75CFC7B68242283F83D20CF
:103870007B681B681A687B681B6822F001021A606B
:103880007B681B681A687B681B6842F400421A60F8
:103890007B681B681A687B681B6822F400421A6008
:1038A00001F042F8F8607B685B68814A934207D870
:1038B000FB68804A934294BF01230023DBB206E0F9
:1038C000FB687D4A934294BF01230023DBB2002BA7
:1038D00001D00123E7E0FB68784AA2FB03239B0C9D
:1038E000BB607B681B685B6823F03F017B681B68DB
:1038F000BA680A435A607B681B681B6A23F03F0161
:103900007B685B686A4A934202D8BB68013309E06E
:10391000BB684FF4967202FB03F3694AA2FB0323D0
:103920009B0901337A6812680B4313627B681B683A
:10393000DB6923F44F4222F0FF027B685B685C493D
:103940008B4219D8FB68591E7B685B685B00B1FB32
:10395000F3F3591C40F6FC730B40002B0AD0FB68B4
:10396000591E7B685B685B00B1FBF3F30133C3F363
:103970000B0351E004234FE07B689B68002B11D1BF
:10398000FB68581E7B6859680B465B000B44B0FB14
:10399000F3F30133C3F30B03002B0CBF012300230C
:1039A000DBB212E0FB68581E7B6859680B469B002F
:1039B0000B4499000B44B0FBF3F30133C3F30B0347
:1039C000002B0CBF01230023DBB2002B01D001230D
:1039D00022E07B689B68002B0ED1FB68581E7B6839
:1039E00059680B465B000B44B0FBF3F30133C3F3A0
:1039F0000B0343F400430FE0FB68581E7B685968D3
:103A00000B469B000B4499000B44B0FBF3F30133CE
:103A1000C3F30B0343F44043796809681343CB6154
:103A20007B681B681B6823F0C0017B68DA697B68D0
:103A30001B6A1A437B681B680A431A607B681B6811
:103A40009B6823F4034323F0FF037A6811697A68C3
:103A5000D26811437A6812680B4393607B681B68D5
:103A6000DB6823F0FF017B685A697B689B691A4316
:103A70007B681B680A43DA607B681B681A687B688E
:103A80001B6842F001021A607B6800221A647B689E
:103A9000202283F83D207B6800221A637B68002285
:103AA00083F83E20002318461037BD4680BD00BF76
:103AB000A08601007F841E00FF083D0083DE1B43BB
:103AC000D34D621080B588B002AFF8600846114649
:103AD0001A4603467B810B463B811346FB80FEF76B
:103AE00035FD7861FB6893F83D30DBB2202B40F068
:103AF000D9807B690093192301226D49F86800F091
:103B000071F90346002B01D00223CCE0FB6893F847
:103B10003C30012B01D10223C5E0FB68012283F870
:103B20003C20FB681B681B6803F00103012B07D0D6
:103B3000FB681B681A68FB681B6842F001021A6088
:103B4000FB681B681A68FB681B6822F400621A6035
:103B5000FB68212283F83D20FB68402283F83E2049
:103B6000FB6800221A64FB683A6A5A62FB68BA8CE6
:103B70005A85FB685B8D9AB2FB681A85FB684D4AD3
:103B8000DA62F8883A8979897B690193BB6A009384
:103B90000346F86800F090F80346002B52D001234A
:103BA00081E07A69B96AF86800F036FA0346002BBA
:103BB0000DD0FB681B6C042B07D1FB681B681A68CF
:103BC000FB681B6842F400721A6001236BE0FB681B
:103BD0005B6A1A78FB681B681A61FB685B6A5A1C8F
:103BE000FB685A62FB681B8D013B9AB2FB681A8521
:103BF000FB685B8D9BB2013B9AB2FB685A85FB6800
:103C00001B685B6903F00403042B1BD1FB681B8D4D
:103C1000002B17D0FB685B6A1A78FB681B681A6177
:103C2000FB685B6A5A1CFB685A62FB681B8D013B90
:103C30009AB2FB681A85FB685B8D9BB2013B9AB216
:103C4000FB685A85FB681B8D002BAAD17A69B96A7B
:103C5000F86800F029FA0346002B0DD0FB681B6CB6
:103C6000042B07D1FB681B681A68FB681B6842F4C9
:103C700000721A60012316E0FB681B681A68FB6873
:103C80001B6842F400721A60FB68202283F83D2012
:103C9000FB68002283F83E20FB68002283F83C206A
:103CA000002300E0022318461837BD4680BD00BF40
:103CB000020010000000FFFF80B588B002AFF8607E
:103CC000084611461A4603467B810B463B81134644
:103CD000FB80FB681B681A68FB681B6842F48072F3
:103CE0001A607B6A00933B6A00224FF00111F8686A
:103CF00000F078F80346002B0DD0FB681B681B68AA
:103D000003F48073B3F5807F03D1FB684FF4007236
:103D10001A6403235FE07B89DBB21A46FB681B68E9
:103D200002F0FE021A617B6A3A6A2D49F86800F0D7
:103D3000D3F80346002B01D001234CE000237B6124
:103D4000FB681B685B697B61FB681B689B697B6127
:103D50007B697A6A396AF86800F05EF90346002BDD
:103D60000DD0FB681B6C042B07D1FB681B681A681D
:103D7000FB681B6842F400721A6001232BE0FB8889
:103D8000012B05D13B89DAB2FB681B681A6121E07F
:103D90003B891B0A9BB2DAB2FB681B681A617A6A1C
:103DA000396AF86800F038F90346002B0DD0FB683B
:103DB0001B6C042B07D1FB681B681A68FB681B6827
:103DC00042F400721A60012305E03B89DAB2FB6815
:103DD0001B681A61002318461837BD4680BD00BF16
:103DE0000200010080B584B000AFF860B9603B60AC
:103DF0001346FB7148E03B68B3F1FF3F44D0FEF748
:103E0000A5FB0246BB69D31A3A689A4202D33B68C3
:103E1000002B39D1BB681B0CDBB2012B0DD1FB6829
:103E20001B685B69DA43BB6813409BB2002B0CBF75
:103E300001230023DBB21A460CE0FB681B689B6978
:103E4000DA43BB6813409BB2002B0CBF0123002355
:103E5000DBB21A46FB799A4216D1FB6800221A633C
:103E6000FB68202283F83D20FB68002283F83E2077
:103E7000FB681B6C43F02002FB681A64FB6800229D
:103E800083F83C20012323E0BB681B0CDBB2012B31
:103E90000DD1FB681B685B69DA43BB6813409BB2BA
:103EA000002B0CBF01230023DBB21A460CE0FB6899
:103EB0001B689B69DA43BB6813409BB2002B0CBFA5
:103EC00001230023DBB21A46FB799A4293D00023E8
:103ED00018461037BD4680BD80B584B000AFF8608D
:103EE000B9607A603B6071E0FB681B685B6903F452
:103EF0008063B3F5806F23D1FB681B681A68FB6889
:103F00001B6842F400721A60FB681B686FF48062E1
:103F10005A61FB6800221A63FB68202283F83D2067
:103F2000FB68002283F83E20FB681B6C43F0040210
:103F3000FB681A64FB68002283F83C20012367E0D9
:103F40007B68B3F1FF3F41D0FEF700FB02463B68C0
:103F5000D31A7A689A4202D37B68002B36D1BB68A9
:103F60001B0CDBB2012B0CD1FB681B685B69DA43CD
:103F7000BB6813409BB2002B14BF01230023DBB2AC
:103F80000BE0FB681B689B69DA43BB6813409BB27C
:103F9000002B14BF01230023DBB2002B16D0FB68DB
:103FA00000221A63FB68202283F83D20FB68002270
:103FB00083F83E20FB681B6C43F02002FB681A6408
:103FC000FB68002283F83C20012321E0BB681B0C26
:103FD000DBB2012B0CD1FB681B685B69DA43BB6861
:103FE00013409BB2002B14BF01230023DBB20BE074
:103FF000FB681B689B69DA43BB6813409BB2002BCC
:1040000014BF01230023DBB2002B7FF46DAF00232C
:1040100018461037BD4680BD80B584B000AFF8604B
:10402000B9607A6034E0F86800F086F80346002B47
:1040300001D0012334E0BB68B3F1FF3F28D0FEF785
:1040400085FA02467B68D31ABA689A4202D3BB68E3
:10405000002B1DD1FB681B685B6903F08003802B7C
:1040600016D0FB6800221A63FB68202283F83D20EB
:10407000FB68002283F83E20FB681B6C43F02002A3
:10408000FB681A64FB68002283F83C20012307E0E8
:10409000FB681B685B6903F08003802BC3D100239E
:1040A00018461037BD4680BD80B584B000AFF860BB
:1040B000B9607A6034E0F86800F03EF80346002BFF
:1040C00001D0012334E0BB68B3F1FF3F28D0FEF7F5
:1040D0003DFA02467B68D31ABA689A4202D3BB689B
:1040E000002B1DD1FB681B685B6903F00403042BE4
:1040F00016D0FB6800221A63FB68202283F83D205B
:10410000FB68002283F83E20FB681B6C43F0200212
:10411000FB681A64FB68002283F83C20012307E057
:10412000FB681B685B6903F00403042BC3D1002305
:1041300018461037BD4680BD80B483B000AF7860AC
:104140007B681B685B6903F48063B3F5806F1BD1E8
:104150007B681B686FF480625A617B6800221A6377
:104160007B68202283F83D207B68002283F83E2074
:104170007B681B6C43F004027B681A647B68002236
:1041800083F83C20012300E0002318460C37BD468D
:1041900080BC704780B586B000AF78607B68002B2C
:1041A00001D1012372E27B681B6803F00103002B3D
:1041B00000F08780924B5B6803F00C03042B0CD05B
:1041C0008F4B5B6803F00C03082B12D18C4B5B68A0
:1041D00003F48033B3F5803F0BD1894B1B6803F4A4
:1041E0000033002B6CD07B685B68002B68D1012307
:1041F0004CE27B685B68B3F5803F06D1804B1B685F
:104200007F4A43F4803313602EE07B685B68002BA9
:104210000CD17B4B1B687A4A23F480331360784BB4
:104220001B68774A23F4802313601DE07B685B687A
:10423000B3F5A02F0CD1724B1B68714A43F4802355
:1042400013606F4B1B686E4A43F4803313600BE0BE
:104250006B4B1B686A4A23F480331360684B1B68FE
:10426000674A23F4802313607B685B68002B13D0BC
:10427000FEF76CF9386108E0FEF768F902463B6921
:10428000D31A642B01D9032300E25D4B1B6803F4AE
:104290000033002BF0D014E0FEF758F9386108E045
:1042A000FEF754F902463B69D31A642B01D9032364
:1042B000ECE1534B1B6803F40033002BF0D100E01A
:1042C00000BF7B681B6803F00203002B63D04C4BDC
:1042D0005B6803F00C03002B0BD0494B5B6803F0C9
:1042E0000C03082B1CD1464B5B6803F48033002B76
:1042F00016D1434B1B6803F00203002B05D07B68EB
:104300001B69012B01D00123C0E13D4B1B6823F049
:10431000F8027B685B69DB00394913430B603AE0C4
:104320007B681B69002B20D0364B01221A60FEF7F8
:104330000DF9386108E0FEF709F902463B69D31A26
:10434000022B01D90323A1E12D4B1B6803F00203CB
:10435000002BF0D02A4B1B6823F0F8027B685B69C6
:10436000DB00274913430B6015E0264B00221A603F
:10437000FEF7ECF8386108E0FEF7E8F802463B6922
:10438000D31A022B01D9032380E11D4B1B6803F0D4
:104390000203002BF0D17B681B6803F00803002B9D
:1043A0003AD07B689B69002B19D0174B01221A6009
:1043B000FEF7CCF8386108E0FEF7C8F802463B6922
:1043C000D31A022B01D9032360E10D4B5B6A03F082
:1043D0000203002BF0D0012000F0CEFA1CE00A4BC3
:1043E00000221A60FEF7B2F838610FE0FEF7AEF86F
:1043F00002463B69D31A022B08D9032346E100BFCA
:10440000001002400000424280044242924B5B6A2C
:1044100003F00203002BE9D17B681B6803F004035F
:10442000002B00F0A6800023FB758B4BDB6903F0AB
:104430008053002B0DD1884BDB69874A43F08053B2
:10444000D361854BDB6903F08053BB60BB680123FC
:10445000FB75824B1B6803F48073002B18D17F4BD4
:104460001B687E4A43F480731360FEF76FF838616F
:1044700008E0FEF76BF802463B69D31A642B01D9BA
:10448000032303E1754B1B6803F48073002BF0D00A
:104490007B68DB68012B06D16F4B1B6A6E4A43F0C9
:1044A000010313622DE07B68DB68002B0CD16A4BA3
:1044B0001B6A694A23F001031362674B1B6A664A51
:1044C00023F0040313621CE07B68DB68052B0CD12E
:1044D000614B1B6A604A43F0040313625E4B1B6A24
:1044E0005D4A43F0010313620BE05B4B1B6A5A4ABF
:1044F00023F001031362584B1B6A574A23F004034D
:1045000013627B68DB68002B15D0FEF71FF838615B
:104510000AE0FEF71BF802463B69D31A41F28832E3
:10452000934201D90323B1E04B4B1B6A03F0020312
:10453000002BEED014E0FEF709F838610AE0FEF730
:1045400005F802463B69D31A41F28832934201D9F9
:1045500003239BE0404B1B6A03F00203002BEED1C8
:10456000FB7D012B05D13C4BDB693B4A23F080539B
:10457000D3617B68DB69002B00F08780364B5B687A
:1045800003F00C03082B61D07B68DB69022B46D15A
:10459000334B00221A60FDF7D9FF386108E0FDF7C0
:1045A000D5FF02463B69D31A022B01D903236DE0E4
:1045B000294B1B6803F00073002BF0D17B681B6A4A
:1045C000B3F5803F08D1244B5B6823F400327B684D
:1045D0009B68214913434B601F4B5B6823F47412A3
:1045E0007B68196A7B685B6A0B431B4913434B600A
:1045F0001B4B01221A60FDF7A9FF386108E0FDF7A7
:10460000A5FF02463B69D31A022B01D903233DE0E3
:10461000114B1B6803F00073002BF0D035E0104BFA
:1046200000221A60FDF792FF386108E0FDF78EFF67
:1046300002463B69D31A022B01D9032326E0064B1D
:104640001B6803F00073002BF0D11EE07B68DB6970
:10465000012B07D1012319E0001002400070004037
:10466000600042420B4B5B68FB60FB6803F48032E6
:104670007B681B6A9A4206D1FB6803F470127B6860
:104680005B6A9A4201D0012300E0002318461837E4
:10469000BD4680BD0010024080B584B000AF786098
:1046A00039607B68002B01D10123D0E06A4B1B6885
:1046B00003F007033A689A4210D9674B1B6823F04E
:1046C000070265493B6813430B60634B1B6803F0AB
:1046D00007033A689A4201D00123B8E07B681B685F
:1046E00003F00203002B20D07B681B6803F0040357
:1046F000002B05D0594B5B68584A43F4E063536084
:104700007B681B6803F00803002B05D0534B5B68E4
:10471000524A43F460535360504B5B6823F0F002FD
:104720007B689B684D4913434B607B681B6803F0B3
:104730000103002B40D07B685B68012B07D1474BFE
:104740001B6803F40033002B15D101237FE07B6845
:104750005B68022B07D1414B1B6803F00073002BF1
:1047600009D1012373E03D4B1B6803F00203002BCA
:1047700001D101236BE0394B5B6823F003027B68B6
:104780005B68364913434B60FDF7E0FEF8600AE0D2
:10479000FDF7DCFE0246FB68D31A41F288329342F1
:1047A00001D9032353E02D4B5B6803F00C027B68B7
:1047B0005B689B009A42EBD1274B1B6803F0070311
:1047C0003A689A4210D2244B1B6823F00702224910
:1047D0003B6813430B60204B1B6803F007033A68E8
:1047E0009A4201D0012332E07B681B6803F0040386
:1047F000002B08D0194B5B6823F4E0627B68DB6810
:10480000164913434B607B681B6803F00803002BB9
:1048100009D0124B5B6823F460527B681B69DB0094
:104820000E4913434B6000F021F802460B4B5B68C6
:104830001B0903F00F030A49CB5C22FA03F3094A70
:104840001360094B1B681846FDF73EFE002318460F
:104850001037BD4680BD00BF00200240001002405E
:104860000CB20008500000205400002080B487B033
:1048700000AF0023FB600023BB6000237B610023AB
:104880007B6000233B611E4B5B68FB60FB6803F0B1
:104890000C03042B02D0082B03D027E0194B3B61FB
:1048A00027E0FB689B0C03F00F03174AD35C7B6087
:1048B000FB6803F48033002B10D0114B5B685B0C5A
:1048C00003F00103114AD35CBB607B680D4A03FB14
:1048D00002F2BB68B2FBF3F37B6104E07B680C4A35
:1048E00002FB03F37B617B693B6102E0054B3B61AB
:1048F00000BF3B6918461C37BD4680BC704700BFEF
:104900000010024000127A0024B2000834B20008FD
:1049100000093D0080B400AF024B1B681846BD463D
:1049200080BC70475000002080B500AFFFF7F2FF59
:104930000246054B5B681B0A03F007030349CB5C87
:1049400022FA03F3184680BD001002401CB2000892
:1049500080B500AFFFF7DEFF0246054B5B68DB0A60
:1049600003F007030349CB5C22FA03F3184680BD2A
:10497000001002401CB2000880B485B000AF78601F
:104980000A4B1B680A4AA2FB03235B0A7A6802FBF4
:1049900003F3FB6000BFFB685A1EFA60002BF9D1DD
:1049A00000BF00BF1437BD4680BC704750000020D8
:1049B000D34D621080B586B000AF786000233B61B4
:1049C0000023FB607B681B6803F00103002B7DD094
:1049D0000023FB754F4BDB6903F08053002B0DD197
:1049E0004C4BDB694B4A43F08053D361494BDB6945
:1049F00003F08053BB60BB680123FB75464B1B680B
:104A000003F48073002B18D1434B1B68424A43F4D4
:104A100080731360FDF79AFD386108E0FDF796FD9D
:104A200002463B69D31A642B01D903236DE03A4B4C
:104A30001B6803F48073002BF0D0364B1B6A03F421
:104A40004073FB60FB68002B2ED07B685B6803F42F
:104A50004073FA689A4227D02E4B1B6A23F44073A6
:104A6000FB602E4B01221A602C4B00221A60294A4F
:104A7000FB681362FB6803F00103002B14D0FDF701
:104A800065FD38610AE0FDF761FD02463B69D31A16
:104A900041F28832934201D9032336E01D4B1B6A51
:104AA00003F00203002BEED01A4B1B6A23F4407272
:104AB0007B685B68174913430B62FB7D012B05D1B3
:104AC000144BDB69134A23F08053D3617B681B6866
:104AD00003F00203002B08D00E4B5B6823F4404226
:104AE0007B689B680B4913434B607B681B6803F032
:104AF0001003002B08D0074B5B6823F480027B680F
:104B0000DB68044913434B60002318461837BD4641
:104B100080BD00BF001002400070004040044242CF
:104B200080B582B000AF78607B68002B01D1012393
:104B300042E07B6893F84130DBB2002B06D17B6802
:104B4000002283F840207868FDF72EFC7B68242241
:104B500083F841207B681B68DA687B681B6822F455
:104B60000052DA60786800F0C5FD7B681B681A693E
:104B70007B681B6822F490421A617B681B685A6943
:104B80007B681B6822F02A025A617B681B68DA681E
:104B90007B681B6842F40052DA607B6800225A642A
:104BA0007B68202283F841207B68202283F8422002
:104BB0007B6800225A63002318460837BD4680BD33
:104BC00080B58AB002AFF860B9603B601346FB80E5
:104BD00000237B61FB6893F84130DBB2202B6DD161
:104BE000BB68002B02D0FB88002B01D1012366E0BB
:104BF000FB6800225A64FB68212283F84120FDF7FC
:104C0000A5FC7861FB68FA889A84FB68FA88DA84E4
:104C1000FB689B68B3F5805F08D1FB681B69002BBC
:104C200004D10023FB61BB68BB6103E0BB68FB618F
:104C30000023BB612AE03B6800937B69002280214E
:104C4000F86800F014FB0346002B01D0032336E084
:104C5000FB69002B0BD1BB691B881A46FB681B68DC
:104C6000C2F308025A60BB690233BB6107E0FB690B
:104C70001A78FB681B685A60FB690133FB61FB68AB
:104C8000DB8C9BB2013B9AB2FB68DA84FB68DB8C5D
:104C90009BB2002BCFD13B6800937B69002240215F
:104CA000F86800F0E4FA0346002B01D0032306E085
:104CB000FB68202283F84120002300E002231846ED
:104CC0002037BD4680BD80B584B000AFF860B960C4
:104CD0001346FB80FB6893F84230DBB2202B12D1E5
:104CE000BB68002B02D0FB88002B01D101230BE015
:104CF000FB6800221A63FB881A46B968F86800F05E
:104D000024FB034600E0022318461037BD4680BD51
:104D100080B5BAB000AF78607B681B681B68C7F8C5
:104D2000E4307B681B68DB68C7F8E0307B681B6891
:104D30005B69C7F8DC300023C7F8D8300023C7F818
:104D4000D430D7F8E43003F00F03C7F8D830D7F8E1
:104D5000D830002B0FD1D7F8E43003F02003002B1C
:104D600009D0D7F8E03003F02003002B03D0786897
:104D700000F001FC5BE2D7F8D830002B00F0DE80B9
:104D8000D7F8DC3003F00103002B06D1D7F8E03070
:104D900003F49073002B00F0D180D7F8E43003F0D7
:104DA0000103002B0BD0D7F8E03003F48073002B05
:104DB00005D07B685B6C43F001027B685A64D7F8CE
:104DC000E43003F00403002B0BD0D7F8DC3003F001
:104DD0000103002B05D07B685B6C43F002027B680B
:104DE0005A64D7F8E43003F00203002B0BD0D7F855
:104DF000DC3003F00103002B05D07B685B6C43F0D3
:104E000004027B685A64D7F8E43003F00803002BEF
:104E100011D0D7F8E03003F02003002B05D1D7F8EC
:104E2000DC3003F00103002B05D07B685B6C43F0A2
:104E300008027B685A647B685B6C002B00F0F2818F
:104E4000D7F8E43003F02003002B08D0D7F8E03087
:104E500003F02003002B02D0786800F08CFB7B6805
:104E60001B685B6903F04003002B14BF0123002380
:104E7000DBB2C7F8D4307B685B6C03F00803002B0F
:104E800003D1D7F8D430002B4FD0786800F096FAD1
:104E90007B681B685B6903F04003002B41D07B6893
:104EA0001B681433C7F89C30D7F89C3053E8003F98
:104EB000C7F89830D7F8983023F04003C7F8D030BF
:104EC0007B681B681433D7F8D020C7F8A820C7F830
:104ED000A430D7F8A410D7F8A82041E80023C7F8D9
:104EE000A030D7F8A030002BD9D17B68DB6B002B2A
:104EF00013D07B68DB6B7E4A5A637B68DB6B18469A
:104F0000FEF722F90346002B16D07B68DB6B5B6B48
:104F10007A68D26B104698470EE0786800F093F9F3
:104F20000AE0786800F08FF906E0786800F08BF905
:104F30007B6800225A6475E100BF73E17B681B6BDC
:104F4000012B40F04F81D7F8E43003F01003002B21
:104F500000F04881D7F8E03003F01003002B00F098
:104F600041810023BB607B681B681B68BB607B685A
:104F70001B685B68BB60BB687B681B685B6903F090
:104F80004003002B00F0B6807B68DB6B1B685B681E
:104F9000A7F8BE30B7F8BE30002B00F045817B6823
:104FA0009B8DB7F8BE209A4280F03E817B68B7F8AF
:104FB000BE20DA857B68DB6B9B69202B00F0888044
:104FC0007B681B680C33C7F88830D7F8883053E803
:104FD000003FC7F88430D7F8843023F48073C7F8D3
:104FE000B8307B681B680C33D7F8B820C7F894201A
:104FF000C7F89030D7F89010D7F8942041E80023F4
:10500000C7F88C30D7F88C30002BD9D17B681B685F
:1050100014337B677B6F53E8003F3B673B6F23F0A4
:105020000103C7F8B4307B681B681433D7F8B42089
:10503000C7F88020FB67F96FD7F8802041E800238C
:10504000BB67BB6F002BE1D17B681B6814333B66E9
:105050003B6E53E8003FFB65FB6D23F04003C7F850
:10506000B0307B681B681433D7F8B020FA66BB6693
:10507000B96EFA6E41E800237B667B6E002BE3D1AC
:105080007B68202283F842207B6800221A637B68B9
:105090001B680C33FB64FB6C53E8003FBB64BB6CC8
:1050A00023F01003C7F8AC307B681B680C33D7F8CB
:1050B000AC20BA657B65796DBA6D41E800233B652C
:1050C0003B6D002BE3D17B68DB6B1846FEF700F8E5
:1050D0007B6802225A637B689A8D7B68DB8D9BB26A
:1050E000D31A9BB21946786800F0B6F89CE000BF6E
:1050F000815400087B689A8D7B68DB8D9BB2D31A44
:10510000A7F8CE307B68DB8D9BB2002B00F08E8041
:10511000B7F8CE30002B00F089807B681B680C3319
:10512000BB63BB6B53E8003F7B637B6B23F49073E3
:10513000C7F8C8307B681B680C33D7F8C8207A647E
:105140003B64396C7A6C41E80023FB63FB6B002BFA
:10515000E3D17B681B6814337B627B6A53E8003FB2
:105160003B623B6A23F00103C7F8C4307B681B68CD
:105170001433D7F8C4203A63FB62F96A3A6B41E80A
:105180000023BB62BB6A002BE3D17B68202283F83B
:1051900042207B6800221A637B681B680C333B61EA
:1051A0003B6953E8003FFB60FB6823F01003C7F83E
:1051B000C0307B681B680C33D7F8C020FA61BB6134
:1051C000B969FA6941E800237B617B69002BE3D16F
:1051D0007B6802225A63B7F8CE301946786800F02F
:1051E0003BF823E0D7F8E43003F08003002B09D02C
:1051F000D7F8E03003F08003002B03D0786800F08C
:1052000053F914E0D7F8E43003F04003002B0ED03C
:10521000D7F8E03003F04003002B08D0786800F0A6
:1052200092F904E000BF02E000BF00E000BFE837F1
:10523000BD4680BD80B483B000AF786000BF0C373E
:10524000BD4680BC704780B483B000AF786000BFBB
:105250000C37BD4680BC704780B483B000AF786027
:105260000B467B8000BF0C37BD4680BC704780B5C5
:1052700090B000AFF860B9603B601346FB7150E03E
:10528000BB6CB3F1FF3F4CD0BB6C002B07D0FDF7DC
:105290005DF902463B68D31ABA6C9A4241D2FB6868
:1052A0001B680C33BB62BB6A53E8003F7B627B6ABE
:1052B00023F4D073FB63FB681B680C33FA6B7A63CF
:1052C0003B63396B7A6B41E80023FB62FB6A002B7E
:1052D000E5D1FB681B6814337B617B6953E8003FB1
:1052E0003B613B6923F00103BB63FB681B6814331C
:1052F000BA6B3A62FB61F9693A6A41E80023BB6123
:10530000BB69002BE5D1FB68202283F84120FB68B4
:10531000202283F84220FB68002283F840200323E8
:105320000FE0FB681B681A68BB681340BA689A42B2
:105330000CBF01230023DBB21A46FB799A429FD0AF
:10534000002318464037BD4680BD80B485B000AF0D
:10535000F860B9601346FB80FB68BA689A62FB6824
:10536000FA889A85FB68FA88DA85FB6800225A6415
:10537000FB68222283F84220FB681B69002B07D0C0
:10538000FB681B68DA68FB681B6842F48072DA60AD
:10539000FB681B685A69FB681B6842F001025A618E
:1053A000FB681B68DA68FB681B6842F02002DA6061
:1053B000002318461437BD4680BC704780B495B0B2
:1053C00000AF78607B681B680C337B637B6B53E8B2
:1053D000003F3B633B6B23F49073FB647B681B686B
:1053E0000C33FA6C3A64FB63F96B3A6C41E80023C6
:1053F000BB63BB6B002BE5D17B681B6814333B623E
:105400003B6A53E8003FFB61FB6923F00103BB6487
:105410007B681B681433BA6CFA62BB62B96AFA6AB9
:1054200041E800237B627B6A002BE5D17B681B6B24
:10543000012B19D17B681B680C33FB60FB6853E8B8
:10544000003FBB60BB6823F010037B647B681B6874
:105450000C337A6CBA617B617969BA6941E80023DF
:105460003B613B69002BE5D17B68202283F8422019
:105470007B6800221A6300BF5437BD4680BC70476A
:1054800080B584B000AF78607B685B6AFB60FB68C6
:105490000022DA85FB680022DA84F868FFF7D3FE81
:1054A00000BF1037BD4680BD80B485B000AF7860C6
:1054B0007B6893F84130DBB2212B3ED17B689B683F
:1054C000B3F5805F14D17B681B69002B10D17B681A
:1054D0001B6AFB60FB681B881A467B681B68C2F36B
:1054E00008025A607B681B6A9A1C7B681A6208E093
:1054F0007B681B6A591C7A6811621A787B681B6882
:105500005A607B68DB8C9BB2013B9BB27A68194680
:10551000D184002B0FD17B681B68DA687B681B681D
:1055200022F08002DA607B681B68DA687B681B689F
:1055300042F04002DA60002300E0022318461437EC
:10554000BD4680BC704780B582B000AF78607B6894
:105550001B68DA687B681B6822F04002DA607B68AF
:10556000202283F841207868FFF764FE0023184664
:105570000837BD4680BD80B58CB000AF78607B68D1
:1055800093F84230DBB2222B40F0AE807B689B6800
:10559000B3F5805F17D17B681B69002B13D1002303
:1055A000FB627B689B6ABB627B681B685B689BB223
:1055B000C3F308039AB2BB6A1A807B689B6A9A1C81
:1055C0007B689A6226E07B689B6AFB620023BB6271
:1055D0007B689B68B3F5805F07D07B689B68002B76
:1055E0000AD17B681B69002B06D17B681B685B684E
:1055F000DAB2FB6A1A7008E07B681B685B68DBB292
:1056000003F07F03DAB2FB6A1A707B689B6A5A1C4C
:105610007B689A627B68DB8D9BB2013B9BB27A68A8
:105620001946D185002B5DD17B681B68DA687B68E1
:105630001B6822F02002DA607B681B68DA687B68EE
:105640001B6822F48072DA607B681B685A697B6889
:105650001B6822F001025A617B68202283F84220F5
:105660007B6800225A637B681B6B012B35D17B68FA
:1056700000221A637B681B680C337B617B6953E8EB
:10568000003F3B613B6923F010037B627B681B6832
:105690000C337A6A3A62FB61F9693A6A41E800239D
:1056A000BB61BB69002BE5D17B681B681B6803F0FD
:1056B0001003102B0AD10023FB607B681B681B685A
:1056C000FB607B681B685B68FB60FB687B689B8D8D
:1056D00019467868FFF7C0FD02E07868FCF78EF89D
:1056E000002302E0002300E0022318463037BD46C5
:1056F00080BD000080B584B000AF78607B681B6817
:105700001B6923F440517B68DA687B681B680A4395
:105710001A617B689A687B681B691A437B685B69BE
:105720001343BB607B681B68DB6823F4B05323F032
:105730000C037A681268B9680B43D3607B681B68F6
:105740005B6923F440717B689A697B681B680A4334
:105750005A617B681B682C4A934203D1FFF7F8F823
:10576000F86002E0FFF7E0F8F860FA6813469B0083
:1057700013449A001A447B685B689B00B2FBF3F306
:10578000224AA2FB03235B091901FA6813469B0016
:1057900013449A001A447B685B689B00B2FBF3F2E7
:1057A0001A4BA3FB02035B09642000FB03F3D31A2B
:1057B0001B013233154AA2FB03235B0903F0F003FC
:1057C0001944FA6813469B0013449A001A447B68F4
:1057D0005B689B00B2FBF3F20C4BA3FB02035B097B
:1057E000642000FB03F3D31A1B013233074AA2FBE8
:1057F00003235B0903F00F027B681B680A449A606D
:1058000000BF1037BD4680BD003801401F85EB51F9
:105810000A22002100F0ECBD014B1868704700BF60
:105820005C00002070B500260C4D0D4C641BA410CC
:10583000A64209D103F018F800260A4D0A4C641B51
:10584000A410A64205D170BD55F8043B9847013617
:10585000EEE755F8043B98470136F2E714B6000826
:1058600014B6000814B6000818B600080A4491429D
:1058700000F1FF3300D1704710B511F8014B914290
:1058800003F8014FF9D110BD884210B501EB0204B5
:1058900002D98442234607D8431EA14208D011F8FA
:1058A000012B03F8012FF8E7014602448A4200D198
:1058B00010BD13F8014D02F8014DF7E7034602440D
:1058C000934200D1704703F8011BF9E7002B2DE943
:1058D000F0471F46BBBF03F100431F4600232D23A3
:1058E00088B01446129A109D1370149BDDF84CA0DA
:1058F00023F02008B8F1460F05D0B8F1450F00D1CC
:105900000135022300E0032307AA049206AACDE989
:1059100002A2CDE9003522463B4600F0C1FEB8F1B7
:10592000470F064602D1119BDB0722D5B8F1460F7F
:1059300006EB050910D13378302B0AD10022002361
:1059400020463946FBF730F818B9C5F10105CAF809
:105950000050DAF8003099440022002320463946EE
:10596000FBF722F808B1CDF81C903022079B4B457D
:1059700007D33046079B159A9B1B136008B0BDE800
:10598000F087591C07911A70F0E70346F7B5002914
:1059900003F8022BB6BF2D222B224942092942705F
:1059A0002BDD0DF10704A4460A2791FBF7F60A4602
:1059B000A64607FB1615632A05F13005314604F1AA
:1059C000FF340EF8015CF0DC3031AEF1020504F872
:1059D000011C2946441C61450AD30DF10902A2EBC2
:1059E0000E02654588BF00221344181A03B0F0BDAB
:1059F00011F8012B04F8012FEDE7302330318370CB
:105A0000C170031DF1E700002DE9F04F91B00C4685
:105A1000DDF8688016461F46054601F0E3FD036881
:105A200018460993FAF794FB00230E93D8F8003038
:105A30000A90073323F0070303F1080294F8189043
:105A4000D4F800B0C8F80020D3E90023C4E9122339
:105A5000D4E9128A2AF000430B934FF0FF324046FC
:105A60009C4B0B99FAF7D2FF70BB4FF0FF324046C8
:105A7000984B0B99FAF7ACFF30BB0022002340464D
:105A80005146FAF79BFF10B12D2384F84330924B17
:105A90009248B9F1470F94BF9846804603234FF0D0
:105AA000000A23612BF00403236033462146284675
:105AB00000970FAA00F0D4F9013040F090804FF029
:105AC000FF3011B0BDE8F08F424653464046514684
:105AD000FAF79CFF48B1BAF1000FB8BF2D238048F8
